:100000000C9434000C94F6010C9451000C945100A3
:100010000C9451000C942C020C9451000C9451003F
:100020000C947B020C9451000C9451000C945100E0
:100030000C940E020C9451000C9451000C9451003D
:100040000C9451000C9451000C9451000C945100EC
:100050000C9451000C9451000C9451000C945100DC
:100060000C9451000C94510011241FBECFEFD8E026
:10007000DEBFCDBF11E0A0E0B1E0E8EAF9E102C0E7
:1000800005900D92A034B107D9F721E0A0E4B1E0CA
:1000900001C01D92AC35B207E1F70E9400010C943B
:1000A000D20C0C940000CF93DF93CDB7DEB78DE375
:1000B00090E0FC0120818DE390E02160FC01208331
:1000C00089E690E0FC01208189E690E02260FC0155
:1000D00020830000DF91CF910895CF93DF93CDB7B8
:1000E000DEB78DE390E0FC0120818DE390E022609B
:1000F000FC01208389E690E0FC01208189E690E004
:100100002860FC0120830000DF91CF910895CF93F8
:10011000DF93CDB7DEB788E690E024E0FC012083D2
:100120008DE690E020EEFC0120830000DF91CF916E
:100130000895CF93DF930F92CDB7DEB7898389817E
:10014000882F90E082959295907F9827807F9827BE
:10015000982F898182958F70892B0F90DF91CF9195
:100160000895CF93DF9300D0CDB7DEB79A8389830C
:1001700080E890E023E4FC01208381E890E02AE11C
:10018000FC01208382E890E0FC01108288E890E086
:1001900029813A81FC013183208384E890E0FC01CD
:1001A0001182108200000F900F90DF91CF9108957F
:1001B000CF93DF93CDB7DEB780E790E024E0FC017A
:1001C000208381EB90E0FC01108280EB90E0FC0149
:1001D000108284EB90E02FEFFC01208387E390E016
:1001E00024E0FC01208381EB90E027E0FC012083E8
:1001F00082EB90E0FC0110820000DF91CF91089526
:10020000CF93DF930F92CDB7DEB787E290E0FC018A
:10021000208187E290E02E60FC01208328E230E01C
:1002200088E290E0F9012081FC01208384E290E0E3
:10023000FC01208184E290E02260FC01208385E2C1
:1002400090E0FC01208185E290E02D7FFC0120837D
:100250000E94D8000E9487000E9453000E94C20A98
:100260000E943E090E94220A0E94570B789460E087
:1002700082E10E942B0B60E083E10E942B0B83E55F
:1002800089830E948009898380914F01682F84E1CE
:100290000E94FF0A80915001682F85E10E94FF0AA9
:1002A00078940E946A0740E160E088E091E00E9453
:1002B000F20989838981833511F00E94360940E172
:1002C00060E489E191E00E94F209898389818335A4
:1002D00011F00E9436098AE290E0FC0180818AE2F6
:1002E00090E0FC0110828BE290E0FC0180818BE2C7
:1002F00090E02FEFFC012083109241011092450104
:10030000809141018D3338F010924101809142017A
:100310008F5F80934201809145018D3338F01092B8
:100320004501809147018F5F80934701809149018A
:100330008A3728F01092490181E08093480180912A
:10034000400118164CF58FE491E00E94560A809106
:100350005101882F90E081709927892B19F00E9414
:10036000A80515C080915101882F90E082709927CF
:10037000892B19F00E94BF050AC080915101882F76
:1003800090E084709927892B11F00E9432068091A9
:10039000400181508093400180914101282F30E03D
:1003A00080910701882F90E0820F931F2091050113
:1003B000222F30E0B9010E94AA0C892B11F40E946F
:1003C000D2078091410190910601692F0E949E0CF5
:1003D000892F882331F480914F01682F84E10E9496
:1003E000FF0A0E9443070E943C058ACF1F920F928A
:1003F0000FB60F9211248F93CF93DF93CDB7DEB753
:10040000809140018F5F809340010000DF91CF9188
:100410008F910F900FBE0F901F9018951F920F9203
:100420000FB60F9211248F939F93EF93FF93CF9367
:10043000DF93CDB7DEB784E890E0FC011182108233
:100440000000DF91CF91FF91EF919F918F910F90DD
:100450000FBE0F901F9018951F920F920FB60F921C
:1004600011242F933F934F935F936F937F938F93B9
:100470009F93AF93BF93EF93FF93CF93DF93CDB74A
:10048000DEB789E290E0FC018081882324F086E5D4
:1004900091E00E94870589E290E0FC018081882F2D
:1004A00090E080749927892B21F488E591E00E94DF
:1004B000870589E290E0FC018081882F90E08072BE
:1004C0009927892B21F48AE591E00E948705000095
:1004D000DF91CF91FF91EF91BF91AF919F918F915C
:1004E0007F916F915F914F913F912F910F900FBE30
:1004F0000F901F9018951F920F920FB60F92112414
:100500002F933F934F935F936F937F938F939F931B
:10051000AF93BF93EF93FF93CF93DF93CDB7DEB746
:1005200082EB90E0FC011082809141018F5F80930B
:1005300041010E94E00418162CF4809145018F5F60
:1005400080934501809149018F5F8093490180919B
:100550004B018F5F80934B010000DF91CF91FF91A2
:10056000EF91BF91AF919F918F917F916F915F912B
:100570004F913F912F910F900FBE0F901F901895A4
:10058000CF93DF9300D0CDB7DEB79A838983809174
:100590004301882309F43BC089819A8186559140A3
:1005A00071F480914F01816080934F0188E290E067
:1005B000FC01208188E290E02260FC012083898197
:1005C0009A818855914071F480914F0182608093A7
:1005D0004F0188E290E0FC01208188E290E02460F5
:1005E000FC01208389819A818A55914009F048C095
:1005F00080914F01846080934F0188E290E0FC017C
:10060000208188E290E02860FC01208339C0898144
:100610009A818655914071F480914F018E7F80932D
:100620004F0188E290E0FC01208188E290E02D7F7C
:10063000FC01208389819A818855914071F48091D1
:100640004F018D7F80934F0188E290E0FC01208173
:1006500088E290E02B7FFC01208389819A818A5572
:10066000914071F480914F018B7F80934F0188E21C
:1006700090E0FC01208188E290E0277FFC0120834C
:1006800000000F900F90DF91CF910895CF93DF93EB
:1006900000D0CDB7DEB79A83898389819A81865548
:1006A000914071F480914F01816080934F0188E205
:1006B00090E0FC01208188E290E02260FC01208330
:1006C00089819A818855914071F480914F018260AF
:1006D00080934F0188E290E0FC01208188E290E065
:1006E0002460FC01208389819A818A55914071F4AC
:1006F00080914F01846080934F0188E290E0FC017B
:10070000208188E290E02860FC01208300000F90A7
:100710000F90DF91CF910895CF93DF9300D0CDB7A5
:10072000DEB79A83898389819A818655914071F4D5
:1007300080914F018E7F80934F0188E290E0FC0111
:10074000208188E290E02D7FFC01208389819A81BD
:100750008855914071F480914F018D7F80934F01B6
:1007600088E290E0FC01208188E290E02B7FFC0190
:10077000208389819A818A55914071F480914F013B
:100780008B7F80934F0188E290E0FC01208188E21A
:1007900090E0277FFC01208300000F900F90DF91F5
:1007A000CF910895CF93DF9300D0CDB7DEB79A8372
:1007B000898380914401882309F43BC089819A810F
:1007C0008655914071F480914F01816080934F0173
:1007D00088E290E0FC01208188E290E02260FC0148
:1007E000208389819A818855914071F480914F01CD
:1007F000826080934F0188E290E0FC01208188E2D2
:1008000090E02460FC01208389819A818A5591407F
:1008100009F048C080914F01846080934F0188E2C5
:1008200090E0FC01208188E290E02860FC012083B8
:1008300039C089819A818655914071F480914F0128
:100840008E7F80934F0188E290E0FC01208188E256
:1008500090E02D7FFC01208389819A818855914009
:1008600071F480914F018D7F80934F0188E290E079
:10087000FC01208188E290E02B7FFC0120838981AC
:100880009A818A55914071F480914F018B7F8093BA
:100890004F0188E290E0FC01208188E290E0277F10
:1008A000FC01208300000F900F90DF91CF910895FD
:1008B000CF93DF9300D0CDB7DEB79A838983898148
:1008C0009A81FC01808191818430910519F18530F4
:1008D000910550F58330910511F18430910520F593
:1008E0008230910591F083309105F0F4009719F072
:1008F000019731F019C089819A810E948C0315C03B
:1009000089819A810E94C00210C089819A810E94C7
:10091000C0020BC089819A810E94460306C089816A
:100920009A810E94D20301C0000000000F900F9036
:10093000DF91CF910895CF93DF93CDB7DEB72091AC
:1009400041019091060181E0291708F080E0809331
:10095000430180914201982F937081E0992309F01F
:1009600080E08093440186E591E00E94580488E588
:1009700091E00E9458048AE591E00E94580400002A
:10098000DF91CF910895CF93DF9300D0CDB7DEB73D
:100990009A83898389819A81FC0180819181019761
:1009A00039F089819A81FC0180819181029711F44B
:1009B00081E001C080E00F900F90DF91CF9108950A
:1009C000CF93DF930F92CDB7DEB7198286E591E022
:1009D0000E94C304882319F089818F5F898388E589
:1009E00091E00E94C304882319F089818F5F898375
:1009F0008AE591E00E94C304882319F089818F5F02
:100A0000898389810F90DF91CF910895CF93DF93F0
:100A1000CDB7DEB786E591E00E94C304882331F0AC
:100A200084E090E0909357018093560188E591E02F
:100A30000E94C304882331F084E090E09093590130
:100A4000809358018AE591E00E94C304882331F025
:100A500084E090E090935B0180935A0182E090E003
:100A600090935501809354011092530110925201BA
:100A70000000DF91CF910895CF93DF93CDB7DEB71C
:100A80000E944A050E949B040E9483060000DF9199
:100A9000CF910895CF93DF930F92CDB7DEB70E9429
:100AA000E0048983809146019981981711F0109292
:100AB0004E018981809346018981823020F48091A2
:100AC0004701863050F080914E018230D9F082E0AB
:100AD00080934E010E94060515C080914701833026
:100AE00088F080914701863068F48981813051F423
:100AF00080914E01813031F081E080934E010E945F
:100B0000470600C000000F90DF91CF910895CF936A
:100B1000DF9300D0CDB7DEB79A83898389819A812C
:100B2000FC0180819181892B69F489819A8121E07E
:100B300030E0FC0131832083109253011092520166
:100B40000E944A0500000F900F90DF91CF91089509
:100B5000CF93DF93CDB7DEB789E48093170186E5A5
:100B600091E00E94190788E591E00E9419078AE543
:100B700091E00E9419070000DF91CF910895CF9373
:100B8000DF93CDB7DEB782E5809317011092550150
:100B9000109254018091520190915301892B09F4D4
:100BA00047C080914801882309F442C080915201D6
:100BB000909153010197E1F482E090E0909353010A
:100BC0008093520161E086E591E00E94E20661E0D7
:100BD00088E591E00E94E20661E08AE591E00E94EA
:100BE000E20610924701109249011092480135C067
:100BF0008091520190915301029779F5109253011F
:100C00001092520162E086E591E00E94E20662E005
:100C100088E591E00E94E20662E08AE591E00E94A8
:100C2000E20610924701109249011092480115C046
:100C30008091520190915301892B81F48091490157
:100C40008B3060F081E090E09093530180935201EB
:100C5000109249011092480101C000000000DF918C
:100C6000CF910895CF93DF93CDB7DEB785E480931E
:100C70001701109253011092520182E090E090937C
:100C80005501809354010000DF91CF910895CF93D7
:100C9000DF93CDB7DEB786E591E00E94C3048823D9
:100CA00031F082E090E0909357018093560188E5FF
:100CB00091E00E94C304882331F082E090E0909399
:100CC0005901809358018AE591E00E94C30488236A
:100CD00031F082E090E090935B0180935A01809123
:100CE000540190915501892B31F481E090E090936B
:100CF000550180935401109253011092520100004B
:100D0000DF91CF910895CF93DF93CDB7DEB7809178
:100D1000540190915501892BB1F480914D0181309E
:100D200009F44CC081E080934D0181E890E0FC0122
:100D3000108285E290E0FC01208185E290E02D7F29
:100D4000FC0120833BC08091540190915501019793
:100D500061F480914D01823091F182E080934D01E8
:100D600080ED97E00E94B1002AC0809154019091DB
:100D70005501029721F580914B018A3760F48091EB
:100D80004D018330E1F083E080934D0188EC90E0E9
:100D90000E94B10014C080914B01843F60F48091A7
:100DA0004D01843061F084E080934D0182E791E051
:100DB0000E94B10004C010924B0101C00000DF91FD
:100DC000CF910895CF93DF9300D000D00F92CDB78D
:100DD000DEB79C838B836D838B819C81FC0180813A
:100DE00091819A8389838D81813091F489819A815F
:100DF000019741F089819A81029721F089819A8136
:100E0000049771F48B819C81FC011182108208C0CF
:100E10008D81823029F48B819C81FC0111821082AA
:100E200000000F900F900F900F900F90DF91CF91D7
:100E30000895CF93DF9300D000D0CDB7DEB79C8369
:100E40008B838B819C81FC01808191819A83898332
:100E500089819A81019741F089819A81029721F0D5
:100E600089819A81049739F48B819C8123E030E059
:100E7000FC013183208300000F900F900F900F90A2
:100E8000DF91CF910895CF93DF930F92CDB7DEB767
:100E90000E94610989838981803B30F48981853A88
:100EA00018F00E94A80512C08981863A30F4898121
:100EB000813918F00E94BF0509C08981853630F458
:100EC0008981803518F00E94320600000F90DF9172
:100ED000CF910895CF93DF93CDB7DEB783E58093AD
:100EE000080181E3809309018AE380930A0180E28B
:100EF00080930B0180E280930C0183E580930D01C8
:100F000082E380930E018AE380930F0180E2809355
:100F1000100180E28093110183E58093120183E345
:100F2000809313018AE38093140180E2809315017A
:100F300080E28093160180E28093170182E580931E
:100F400019018AE380931A0180E280931B0180E2F9
:100F500080931C0184E580931D018AE380931E0128
:100F600080E280931F0180E28093200180E28093E1
:100F7000210180E38093220180E38093230180E3B9
:100F80008093240180E28093250180E380932601F1
:100F900080E28093270180E3809328010000DF91A5
:100FA000CF910895CF93DF93CDB7DEB780915601EF
:100FB000909157010E948E0880930B0180915801F7
:100FC000909159010E948E088093100180915A01DE
:100FD00090915B010E948E088093150140E160E0D2
:100FE00088E091E00E94F2098091520190915301B2
:100FF0000E94F70880931B01809154019091550144
:101000000E94D30880931F019091420189E2989F2A
:10101000812D1124282F22952F708DEC289F812D52
:101020001124982F969596959695892F880F880F5D
:10103000890F880F922F981B80E3890F80932201DC
:10104000909142018DEC989F812D1124282F269597
:10105000269526958DEC289F812D1124982F969505
:1010600096959695892F880F880F890F880F922F54
:10107000981B80E3890F80932301209142018DEC1E
:10108000289F812D1124982F969596959695892FB6
:10109000880F880F890F880F922F981B80E3890F84
:1010A00080932401209148018DEC289F812D1124EB
:1010B000982F969596959695892F880F880F890F6A
:1010C000880F922F981B80E3890F8093260120912F
:1010D00047018DEC289F812D1124982F9695969588
:1010E0009695892F880F880F890F880F922F981B4C
:1010F00080E3890F8093280140E160E489E191E079
:101100000E94F2090000DF91CF910895CF93DF9301
:10111000CDB7DEB70000DF91CF910895CF93DF9375
:1011200000D00F92CDB7DEB79B838A8384E391E032
:1011300089838A819B81049731F18A819B810597FC
:1011400040F58A819B81039709F18A819B810497ED
:1011500000F58A819B81029799F08A819B81039790
:10116000C0F48A819B81892B29F08A819B81019718
:1011700021F00FC08EE489830FC083E589830CC002
:1011800084E5898309C085E4898306C089E489836D
:1011900003C088E58983000089810F900F900F902C
:1011A000DF91CF910895CF93DF9300D0CDB7DEB715
:1011B0009A83898389819A81029789F089819A81AA
:1011C000039778F489819A81892B29F089819A8102
:1011D000019719F006C08EE405C081E403C085E4E0
:1011E00001C080E20F900F90DF91CF910895CF93CF
:1011F000DF9300D0CDB7DEB79A83898389819A8146
:10120000029789F089819A81039778F489819A817C
:10121000892B29F089819A81019719F006C08EE403
:1012200005C081E303C082E301C080E20F900F900C
:10123000DF91CF910895CF93DF9300D0CDB7DEB784
:1012400089836A8399818A81981714F4898101C0FE
:101250008A810F900F90DF91CF910895CF93DF9304
:10126000CDB7DEB70000DF91CF910895CF93DF9324
:10127000CDB7DEB70000DF91CF910895CF93DF9314
:10128000CDB7DEB787E290E0FC01208187E290E0F5
:101290002E7FFC0120838CE790E020E6FC01208378
:1012A0008AE790E0FC0110828AE790E0FC0120814F
:1012B0008AE790E02768FC01208381E0DF91CF91ED
:1012C0000895CF93DF93CDB7DEB78AE790E0FC01B6
:1012D00020818AE790E02064FC01208300008AE7F7
:1012E00090E0FC018081882F90E080749927892B01
:1012F000B1F789E790E0FC018081DF91CF910895FB
:10130000CF93DF93CDB7DEB728970FB6F894DEBF43
:101310000FBECDBF83E589830E947F0B87E20E94C9
:10132000650C80E00E941F0C80E30E941F0C80E38C
:101330000E941F0C80E30E941F0C80E30E941F0C80
:1013400080E20E941F0C60E08CE00E94E60B60E0EF
:1013500081E00E94E60B0E94960B0E947F0B87E2C1
:101360000E94650C68E080E80E94E60B89830E9479
:10137000960B86E391E09B838A8387E28C8388E0E7
:101380008D8389E08E838A819B8198878F834C81AE
:101390005D816E817F8188850E94A30B898389810D
:1013A00028960FB6F894DEBF0FBECDBFDF91CF9168
:1013B0000895CF93DF9300D0CDB7DEB78A830E9424
:1013C0007F0B87E20E94650C8A81806868E00E943A
:1013D000E60B89830E94960B89810F900F90DF9115
:1013E000CF910895CF93DF93CDB7DEB72A970FB68D
:1013F000F894DEBF0FBECDBF98878F8369874A8779
:1014000083E5898389850E94D909898387E28A8354
:1014100089E08C838A858B838F8198859E838D83D9
:101420004A815B816C817D818E810E94A30B8983BF
:1014300089812A960FB6F894DEBF0FBECDBFDF912B
:10144000CF910895CF93DF93CDB7DEB760E48AE004
:101450000E94FF0A60E081E00E94FF0A60E780E0EE
:101460000E94FF0A60E08DE00E94FF0A60E78CE0C6
:101470000E94FF0A60E085E00E94FF0A60E784E0C6
:101480000E94FF0A60E089E00E94FF0A60E788E0AE
:101490000E94FF0A60E087E00E94FF0A60E786E0A2
:1014A0000E94FF0A0000DF91CF910895CF93DF9350
:1014B00000D00F92CDB7DEB79B838A83198260E09C
:1014C00082E10E942B0B89838981082E000C990BE5
:1014D00080749927892B59F48A819B81FC01828130
:1014E000282F24608A819B81FC0122830AC08A8183
:1014F0009B81FC018281282F2B7F8A819B81FC01AB
:1015000022838981082E000C990B80729927892BE0
:1015100059F48A819B81FC018281282F22608A8173
:101520009B81FC0122830AC08A819B81FC0182810C
:10153000282F2D7F8A819B81FC0122838981082E9F
:10154000000C990B80719927892B59F48A819B8112
:10155000FC018281282F21608A819B81FC012283EA
:101560000AC08A819B81FC018281282F2E7F8A817B
:101570009B81FC01228300000F900F900F90DF9160
:10158000CF910895CF93DF93CDB7DEB784E290E09B
:101590002FE2FC01208385E290E0FC01208185E2BE
:1015A00090E02560FC0120838CE490E0FC01208128
:1015B0008CE490E02065FC0120838DE490E0FC0148
:1015C00010820000DF91CF910895CF93DF930F92A7
:1015D000CDB7DEB789838EE490E02981FC012083BA
:1015E00000008DE490E0FC0180818823D4F78EE434
:1015F00090E0FC0180810F90DF91CF910895CF930F
:10160000DF9300D00F92CDB7DEB78A836B83198248
:1016100085E290E0FC01208185E290E02B7FFC01D7
:10162000208380E40E94E50A8A810E94E50A8B817A
:101630000E94E50A898385E290E0FC01208185E231
:1016400090E02460FC01208389810F900F900F901F
:10165000DF91CF910895CF93DF9300D00F92CDB754
:10166000DEB78A836B83198285E290E0FC012081DA
:1016700085E290E02B7FFC01208381E40E94E50A53
:101680008A810E94E50A8B810E94E50A898385E2AE
:1016900090E0FC01208185E290E02460FC01208341
:1016A00089810F900F900F90DF91CF910895CF9384
:1016B000DF93CDB7DEB787E290E0FC01208187E2BF
:1016C00090E02F7CFC01208388E290E0FC012081E7
:1016D00088E290E02063FC0120838AEB90E0FC012B
:1016E000108288EB90E021ECFC0120838CEB90E0F1
:1016F00024E0FC01208381E0DF91CF910895CF9316
:10170000DF93CDB7DEB78CEB90E024EAFC012083B9
:101710000E948E0C89EB90E0FC018081803111F0F9
:1017200086E401C083E5DF91CF910895CF93DF93E5
:10173000CDB7DEB78CEB90E024E9FC0120830000FC
:10174000DF91CF910895CF93DF9300D000D000D0E8
:101750000F92CDB7DEB74B835C836D837E838F831F
:1017600083E589830E947F0B89838981833531F4E6
:101770008B810E94650C89831A8215C00E94960B8A
:1017800089811BC04D812E813F818A81882F90E005
:10179000820F931FFC018081642F0E94E60B8983D6
:1017A0008A818F5F8A838C819A81981718F483E5E8
:1017B0008983E8CF0E94960B898127960FB6F8940B
:1017C000DEBF0FBECDBFDF91CF910895CF93DF93E2
:1017D00000D000D00F92CDB7DEB78C836D8383E548
:1017E00089838C81982F907F8D81892B8A838C812E
:1017F000882F90E082959295907F9827807F9827F8
:10180000982F8D81892B8B838A810E941F0C89835D
:101810008981833511F089810AC08B810E941F0C58
:1018200089838981833511F0898101C089810F9075
:101830000F900F900F900F90DF91CF910895CF935D
:10184000DF9300D0CDB7DEB78A838A8189838BEBA3
:1018500090E029812460FC0120838CEB90E024E857
:10186000FC0120830E948E0C89EB90E0FC018081BA
:10187000882F90E0887F9927889729F089EB90E05E
:10188000FC0180811DC08BEB90E029812B7FFC0146
:1018900020838CEB90E024E8FC0120830E948E0CD6
:1018A00089EB90E0FC018081882F90E0887F992768
:1018B000889729F089EB90E0FC01808101C083E5E5
:1018C0000F900F90DF91CF910895CF93DF930F92F8
:1018D000CDB7DEB789830E948E0C8BEB90E0298117
:1018E000220FFC0120838CEB90E024E8FC01208394
:1018F0000E948E0C89EB90E0FC018081882F90E0A3
:10190000887F9927489729F089EB90E0FC01808136
:1019100001C083E50F90DF91CF910895CF93DF93BE
:10192000CDB7DEB700008CEB90E0FC01808188230E
:10193000D4F700000000DF91CF910895991B79E062
:1019400004C0991F961708F0961B881F7A95C9F74F
:101950008095089597FB072E16F4009407D077FD25
:1019600009D00E94BE0C07FC05D03EF490958195ED
:101970009F4F0895709561957F4F0895AA1BBB1BDB
:1019800051E107C0AA1FBB1FA617B70710F0A61B7F
:10199000B70B881F991F5A95A9F780959095BC01A0
:0819A000CD010895F894FFCF7A
:1019A800CDCCCC3DFF1E1E0F202020202020202043
:1019B800202020202020202000202020202020203F
:1019C80020202020202020202000540152015601F0
:1019D80058015A0120004C434420494E4954000004
:00000001FF
