:100000000C9434000C94BD010C9451000C945100DC
:100010000C9451000C94F3010C9451000C94510079
:100020000C9445020C9451000C9451000C94510016
:100030000C94D5010C9451000C9451000C94510077
:100040000C9451000C9451000C9451000C945100EC
:100050000C9451000C9451000C9451000C945100DC
:100060000C9451000C94510011241FBECFEFD8E026
:10007000DEBFCDBF11E0A0E0B1E0E4EDF1E102C0F0
:1000800005900D92A035B107D9F721E0A0E5B1E0C8
:1000900001C01D92AC35B207E1F70E9400010C943B
:1000A000E8080C940000CF93DF93CDB7DEB78DE363
:1000B00090E0FC0120818DE390E02160FC01208331
:1000C00089E690E0FC01208189E690E02260FC0155
:1000D00020830000DF91CF910895CF93DF93CDB7B8
:1000E000DEB78DE390E0FC0120818DE390E022609B
:1000F000FC01208389E690E0FC01208189E690E004
:100100002860FC0120830000DF91CF910895CF93F8
:10011000DF93CDB7DEB788E690E024E0FC012083D2
:100120008DE690E020EEFC0120830000DF91CF916E
:100130000895CF93DF930F92CDB7DEB7898389817E
:10014000882F90E082959295907F9827807F9827BE
:10015000982F898182958F70892B0F90DF91CF9195
:100160000895CF93DF9300D0CDB7DEB79A8389830C
:1001700080E890E023E4FC01208381E890E02AE11C
:10018000FC01208382E890E0FC01108288E890E086
:1001900029813A81FC013183208384E890E0FC01CD
:1001A0001182108200000F900F90DF91CF9108957F
:1001B000CF93DF93CDB7DEB780E790E024E0FC017A
:1001C000208381EB90E0FC01108280EB90E0FC0149
:1001D000108284EB90E02FEFFC01208387E390E016
:1001E00024E0FC01208381EB90E027E0FC012083E8
:1001F00082EB90E0FC0110820000DF91CF91089526
:10020000CF93DF930F92CDB7DEB787E290E0FC018A
:10021000208187E290E02E60FC01208328E230E01C
:1002200088E290E0F9012081FC01208384E290E0E3
:10023000FC01208184E290E02260FC01208385E2C1
:1002400090E0FC01208185E290E02D7FFC0120837D
:100250000E94D8000E9487000E9453000E944E0610
:100260000E94E6040E94C2050E94E306789460E0C2
:1002700082E10E94B70660E083E10E94B70683E551
:1002800089830E942005898380912A01682F84E157
:100290000E948B0680912B01682F85E10E948B06BE
:1002A00078944BE060E487E391E00E9492058983B3
:1002B0008981833511F00E9468048AE290E0FC0194
:1002C00080818AE290E0FC0110828BE290E0FC01E8
:1002D00080818BE290E02FEFFC01208310920501DA
:1002E000809105018D33D0F1809106018F5F80935D
:1002F00006011092050188E290E0FC01308188E25D
:1003000090E022E02327FC01208380915101882383
:1003100029F0809107018F5F8093070189E290E0C7
:10032000FC0180818823C4F489E290E0FC01808193
:10033000882F90E080749927892B71F089E290E0F2
:10034000FC018081882F90E080729927892B21F011
:1003500010925101109207010E9467028091500192
:1003600018160CF0BDCF8AE291E00E94F60580914C
:100370005001815080935001B3CF1F920F920FB65E
:100380000F9211248F93CF93DF93CDB7DEB7809177
:1003900050018F5F809350010000DF91CF918F91CA
:1003A0000F900FBE0F901F9018951F920F920FB6CF
:1003B0000F9211248F939F93EF93FF93CF93DF932B
:1003C000CDB7DEB784E890E0FC0111821082000016
:1003D000DF91CF91FF91EF919F918F910F900FBE81
:1003E0000F901F9018951F920F920FB60F92112425
:1003F0008F939F93EF93FF93CF93DF93CDB7DEB7A8
:1004000089E290E0FC018081882354F081E08093B0
:10041000510181E090E090935701809356012AC0EA
:1004200089E290E0FC018081882F90E08074992718
:10043000892B51F481E090E0909359018093580109
:1004400081E08093510116C089E290E0FC01808137
:10045000882F90E080729927892B51F481E0809356
:10046000510181E090E090935B0180935A0102C0BA
:1004700010925101DF91CF91FF91EF919F918F9158
:100480000F900FBE0F901F9018951F920F920FB6EE
:100490000F9211248F939F93EF93FF93CF93DF934A
:1004A000CDB7DEB782EB90E0FC01108280910501B0
:1004B0008F5F809305010000DF91CF91FF91EF9155
:1004C0009F918F910F900FBE0F901F901895CF9313
:1004D000DF93CDB7DEB783E58093080181E3809396
:1004E00009018AE380930A01809156019091570196
:1004F0000E94FE02FC01808180930B0180915601D5
:10050000909157010E94FE020196FC018081809328
:100510000C0183E580930D0182E380930E018AE351
:1005200080930F0180915801909159010E94FE0221
:10053000FC018081809310018091580190915901B4
:100540000E94FE020196FC0180818093110183E5E7
:100550008093120183E3809313018AE38093140153
:1005600080915A0190915B010E94FE02FC01808102
:100570008093150180915A0190915B010E94FE02C7
:100580000196FC0180818093160182E58093190118
:100590008AE380931A0180915201909153010E9445
:1005A0007D0380931B0180E280931C0184E580938E
:1005B0001D018AE380931E018091540190915501A1
:1005C0000E94590380931F010E94B40340E160E040
:1005D00088E091E00E94920540E160E489E191E0C9
:1005E0000E9492050000DF91CF910895CF93DF9391
:1005F000CDB7DEB70000DF91CF910895CF93DF93A1
:1006000000D000D0CDB7DEB79C838B8383E491E02C
:100610009A8389838B819C81049779F18B819C815A
:100620000597C0F58B819C81039769F18B819C8133
:10063000049780F58B819C810297C9F08B819C8106
:10064000039740F58B819C81892B29F08B819C81BC
:10065000019739F01FC089819A812EE4FC01208323
:100660001FC089819A8121E4FC01208319C08981FE
:100670009A8124E5FC01208313C089819A8125E4B5
:10068000FC0120830DC089819A81019629E4FC0137
:10069000208306C089819A8128E5FC01208300001F
:1006A00089819A810F900F900F900F90DF91CF91D9
:1006B0000895CF93DF9300D0CDB7DEB79A838983B7
:1006C00089819A81029789F089819A81039778F4C8
:1006D00089819A81892B29F089819A81019719F062
:1006E00006C08EE405C081E403C085E401C080E259
:1006F0000F900F90DF91CF910895CF93DF9300D0AB
:10070000CDB7DEB79A83898389819A81029789F070
:1007100089819A81039778F489819A81892B29F0BC
:1007200089819A81019719F006C08EE405C081E3A2
:1007300003C082E301C080E20F900F90DF91CF9160
:100740000895CF93DF9300D0CDB7DEB789836A8356
:1007500099818A81981714F4898101C08A810F9048
:100760000F90DF91CF910895CF93DF93CDB7DEB790
:100770009091060189E2989F812D1124282F2295BE
:100780002F708DEC289F812D1124982F969596958A
:100790009695892F880F880F890F880F922F981BA5
:1007A00080E3890F80932201909106018DEC989F40
:1007B000812D1124282F2695269526958DEC289F8E
:1007C000812D1124982F969596959695892F880FAF
:1007D000880F890F880F922F981B80E3890F8093D1
:1007E0002301209106018DEC289F812D1124982F43
:1007F000969596959695892F880F880F890F880F63
:10080000922F981B80E3890F809324019091070118
:1008100089E2989F812D1124282F22952F708DEC2D
:10082000289F812D1124982F969596959695892F1E
:10083000880F880F890F880F922F981B80E3890FEC
:1008400080932601909107018DEC989F812D1124B2
:10085000282F2695269526958DEC289F812D1124ED
:10086000982F969596959695892F880F880F890FC2
:10087000880F922F981B80E3890F80932701209186
:1008800007018DEC289F812D1124982F9695969520
:100890009695892F880F880F890F880F922F981BA4
:1008A00080E3890F809328010000DF91CF910895A4
:1008B000CF93DF93CDB7DEB70000DF91CF910895DE
:1008C000CF93DF93CDB7DEB70000DF91CF910895CE
:1008D000CF93DF93CDB7DEB70000DF91CF910895BE
:1008E000CF93DF93CDB7DEB72B970FB6F894DEBF6B
:1008F0000FBECDBF9F838E830E9401058D83198219
:100900001A821B821C828D81843128F419821A82FA
:100910001B821C8238C08D81823348F48DEC9CECA4
:10092000ACE4BEE389839A83AB83BC832CC08D8106
:10093000883748F48DEC9CECACECBEE389839A8359
:10094000AB83BC8320C08D818A3A48F48AE999E957
:10095000A9E1BFE389839A83AB83BC8314C08D81F3
:100960008C3D48F48DEC9CECACE4BFE389839A8326
:10097000AB83BC8308C086E696E6A6E6BFE3898320
:100980009A83AB83BC8329813A814B815C8160E08F
:1009900070E080E89FE30E942A08688779878A8749
:1009A0009B8788859985AA85BB852E813F81F90122
:1009B00080839183A283B38300002B960FB6F894B3
:1009C000DEBF0FBECDBFDF91CF910895CF93DF93F0
:1009D000CDB7DEB787E290E0FC01208187E290E0AE
:1009E0002E7FFC0120838CE790E020E6FC01208331
:1009F0008AE790E027E8FC01208381E0DF91CF9136
:100A00000895CF93DF93CDB7DEB78AE790E0FC017E
:100A100020818AE790E02064FC01208300008AE7BF
:100A200090E0FC018081882F90E080749927892BC9
:100A3000B1F789E790E0FC018081DF91CF910895C3
:100A4000CF93DF93CDB7DEB728970FB6F894DEBF0C
:100A50000FBECDBF83E589830E940B0787E20E940A
:100A6000F10780E00E94AB0780E30E94AB0780E3C0
:100A70000E94AB0780E30E94AB0780E30E94AB07B4
:100A800080E20E94AB0760E08CE00E94720760E0A9
:100A900081E00E9472070E9422070E940B0787E2F2
:100AA0000E94F10768E080E80E94720789830E9433
:100AB000220786E491E09B838A8387E28C8388E027
:100AC0008D8389E08E838A819B8198878F834C8177
:100AD0005D816E817F8188850E942F07898389814E
:100AE00028960FB6F894DEBF0FBECDBFDF91CF9131
:100AF0000895CF93DF9300D0CDB7DEB78A830E94ED
:100B00000B0787E20E94F1078A81806868E00E94F3
:100B1000720789830E94220789810F900F90DF91CD
:100B2000CF910895CF93DF93CDB7DEB72A970FB655
:100B3000F894DEBF0FBECDBF98878F8369874A8741
:100B400083E5898389850E947905898387E28A8381
:100B500089E08C838A858B838F8198859E838D83A2
:100B60004A815B816C817D818E810E942F07898300
:100B700089812A960FB6F894DEBF0FBECDBFDF91F4
:100B8000CF910895CF93DF93CDB7DEB760E48AE0CD
:100B90000E948B0660E081E00E948B0660E780E0A7
:100BA0000E948B0660E08DE00E948B0660E78CE07F
:100BB0000E948B0660E085E00E948B0660E784E07F
:100BC0000E948B0660E089E00E948B0660E788E067
:100BD0000E948B0660E087E00E948B0660E786E05B
:100BE0000E948B060000DF91CF910895CF93DF9391
:100BF00000D00F92CDB7DEB79B838A83198260E065
:100C000082E10E94B70689838981882354F08A8112
:100C10009B81FC018281282F21608A819B81FC01BC
:100C200022838981082E000C990B88709927892BC3
:100C300051F48A819B81FC018281282F22608A8164
:100C40009B81FC01228360E083E10E94B7068983D7
:100C50008981882354F08A819B81FC018281282F1D
:100C600024608A819B81FC0122838981082E000CEB
:100C7000990B88709927892B51F48A819B81FC01FB
:100C80008281282F28608A819B81FC0122830000B9
:100C90000F900F900F90DF91CF910895CF93DF9336
:100CA000CDB7DEB784E290E02FE2FC01208385E23D
:100CB00090E0FC01208185E290E02560FC0120832A
:100CC0008CE490E0FC0120818CE490E02065FC0144
:100CD00020838DE490E0FC0110820000DF91CF9131
:100CE0000895CF93DF930F92CDB7DEB789838EE45B
:100CF00090E02981FC01208300008DE490E0FC015C
:100D000080818823D4F78EE490E0FC0180810F90ED
:100D1000DF91CF910895CF93DF9300D00F92CDB79D
:100D2000DEB78A836B83198285E290E0FC01208123
:100D300085E290E02B7FFC01208380E40E94710615
:100D40008A810E9471068B810E947106898385E2E7
:100D500090E0FC01208185E290E02460FC0120838A
:100D600089810F900F900F90DF91CF910895CF93CD
:100D7000DF9300D00F92CDB7DEB78A836B831982E1
:100D800085E290E0FC01208185E290E02B7FFC0170
:100D9000208381E40E9471068A810E9471068B8102
:100DA0000E947106898385E290E0FC01208185E242
:100DB00090E02460FC01208389810F900F900F90B8
:100DC000DF91CF910895CF93DF93CDB7DEB787E260
:100DD00090E0FC01208187E290E02F7CFC012083E1
:100DE00088E290E0FC01208188E290E02063FC0131
:100DF00020838AEB90E0FC01108288EB90E021ECEC
:100E0000FC0120838CEB90E024E0FC01208381E056
:100E1000DF91CF910895CF93DF93CDB7DEB78CEB01
:100E200090E024EAFC0120830E941A0889EB90E0FC
:100E3000FC018081803111F086E401C083E5DF91FF
:100E4000CF910895CF93DF93CDB7DEB78CEB90E0D1
:100E500024E9FC0120830000DF91CF910895CF9316
:100E6000DF9300D000D000D00F92CDB7DEB74B8318
:100E70005C836D837E838F8383E589830E940B0768
:100E800089838981833531F48B810E94F1078983BD
:100E90001A8215C00E94220789811BC04D812E81B4
:100EA0003F818A81882F90E0820F931FFC0180810F
:100EB000642F0E94720789838A818F5F8A838C8165
:100EC0009A81981718F483E58983E8CF0E94220756
:100ED000898127960FB6F894DEBF0FBECDBFDF9194
:100EE000CF910895CF93DF9300D000D00F92CDB76C
:100EF000DEB78C836D8383E589838C81982F907F07
:100F00008D81892B8A838C81882F90E082959295A0
:100F1000907F9827807F9827982F8D81892B8B83AE
:100F20008A810E94AB0789838981833511F0898189
:100F30000AC08B810E94AB0789838981833511F0B8
:100F4000898101C089810F900F900F900F900F90B1
:100F5000DF91CF910895CF93DF9300D0CDB7DEB767
:100F60008A838A8189838BEB90E029812460FC014C
:100F700020838CEB90E024E8FC0120830E941A0877
:100F800089EB90E0FC018081882F90E0887F992791
:100F9000889729F089EB90E0FC0180811DC08BEBE4
:100FA00090E029812B7FFC0120838CEB90E024E8EA
:100FB000FC0120830E941A0889EB90E0FC018081EB
:100FC000882F90E0887F9927889729F089EB90E017
:100FD000FC01808101C083E50F900F90DF91CF91DC
:100FE0000895CF93DF930F92CDB7DEB789830E9428
:100FF0001A088BEB90E02981220FFC0120838CEBF7
:1010000090E024E8FC0120830E941A0889EB90E01C
:10101000FC018081882F90E0887F9927489729F0EC
:1010200089EB90E0FC01808101C083E50F90DF91A6
:10103000CF910895CF93DF93CDB7DEB700008CEB4F
:1010400090E0FC0180818823D4F700000000DF914C
:10105000CF9108955058BB27AA270E9442080C94AC
:10106000AE080E94A00838F00E94A70820F039F4CA
:101070009F3F19F426F40C949D080EF4E095E7FBCD
:101080000C949708E92F0E94BF0858F3BA1762071B
:1010900073078407950720F079F4A6F50C94E1080E
:1010A0000EF4E0950B2EBA2FA02D0B01B901900183
:1010B0000C01CA01A0011124FF27591B99F0593FC7
:1010C00050F4503E68F11A16F040A22F232F342F0F
:1010D0004427585FF3CF469537952795A795F0405D
:1010E0005395C9F77EF41F16BA0B620B730B840B72
:1010F000BAF09150A1F0FF0FBB1F661F771F881F2A
:10110000C2F70EC0BA0F621F731F841F48F4879581
:1011100077956795B795F7959E3F08F0B0CF939573
:10112000880F08F09927EE0F97958795089597F9FE
:101130009F6780E870E060E008959FEF80EC08957D
:1011400000240A94161617061806090608950024A6
:101150000A9412161306140605060895092E039420
:10116000000C11F4882352F0BB0F40F4BF2B11F494
:1011700060FF04C06F5F7F4F8F4F9F4F089557FDF3
:101180009058440F551F59F05F3F71F04795880FF5
:1011900097FB991F61F09F3F79F08795089512168C
:1011A00013061406551FF2CF4695F1DF08C0161638
:1011B00017061806991FF1CF8695710561050894E9
:1011C0000895E894BB2766277727CB0197F9089500
:0411D000F894FFCFC1
:1011D400CDCCCC3DFF010201202020202020202066
:1011E400202020202020202000202020202020201B
:1011F400202020202020202020000500005401521F
:1012040001560158015A0148656C6C6F20576F7282
:101214006C64002020004C434420494E4954000093
:00000001FF
