:100000000C9434000C94F9010C9451000C945100A0
:100010000C9451000C9451000C9451000C9451001C
:100020000C942F020C9451000C9451000C9451002C
:100030000C9411020C9451000C9451000C9451003A
:100040000C9451000C9451000C9451000C945100EC
:100050000C9451000C9451000C9451000C945100DC
:100060000C9451000C94510011241FBECFEFD8E026
:10007000DEBFCDBF11E0A0E0B1E0E4E6FEE002C0EB
:1000800005900D92A034B107D9F721E0A0E4B1E0CA
:1000900001C01D92A134B207E1F70E94EE000C945A
:1000A00030070C940000CF93DF93CDB7DEB78DE31C
:1000B00090E0FC0120818DE390E02160FC01208331
:1000C00089E690E0FC01208189E690E02260FC0155
:1000D00020830000DF91CF910895CF93DF93CDB7B8
:1000E000DEB78DE390E0FC0120818DE390E022609B
:1000F000FC01208389E690E0FC01208189E690E004
:100100002860FC0120830000DF91CF910895CF93F8
:10011000DF930F92CDB7DEB789838981882F90E076
:1001200082959295907F9827807F9827982F898134
:1001300082958F70892B0F90DF91CF910895CF9387
:10014000DF9300D0CDB7DEB79A83898380E890E053
:1001500020E4FC01208381E890E02AE0FC01208378
:1001600082E890E0FC01108288E890E029813A81E1
:10017000FC013183208384E890E0FC01118210822D
:1001800000000F900F90DF91CF910895CF93DF93F0
:10019000CDB7DEB780E790E024E0FC01208381EB5F
:1001A00090E0FC01108280EB90E0FC01108284EB77
:1001B00090E02FEFFC01208387E390E024E0FC0136
:1001C000208381EB90E027E0FC01208382EB90E02C
:1001D000FC0110820000DF91CF910895CF93DF934F
:1001E000CDB7DEB72E970FB6F894DEBF0FBECDBFEA
:1001F00087E290E0FC01208187E290E02E60FC0124
:10020000208328E230E088E290E0F9012081FC01BF
:10021000208384E290E0FC01208184E290E022606F
:10022000FC01208385E290E0FC01208185E290E0E2
:100230002D7FFC0120830E94C6000E9453000E9473
:1002400096040E942E030E940A040E942B0560E07F
:1002500082E10E94FF0460E083E10E94FF0483E5E5
:100260008A830E9468038A836FEF84E10E94D3042B
:100270006FEF85E10E94D30478948CE0EBE2F1E02B
:10028000DE01139601900D928A95E1F7CE01039657
:100290004BE060E40E94DA038A838A81833511F09F
:1002A0000E94B0028AE290E0FC0180818AE290E044
:1002B000FC0110828BE290E0FC0180818BE290E0F7
:1002C0002FEFFC0120831982109205018091050116
:1002D0008D3308F457C01092050188E290E0FC01CC
:1002E000308188E290E022E02327FC01208389818D
:1002F0008F5F898329818DEC289F812D1124982F70
:10030000969596959695892F880F880F890F880F57
:10031000922F981B492F50E099818DEC989F812D49
:100320001124282F2695269526958DEC289F812D22
:100330001124982F969596959695892F880F880F5A
:10034000890F880F922F981B292F30E0998189E21D
:10035000989F812D1124682F62956F708DEC689F96
:10036000812D1124982F969596959695892F880F13
:10037000880F890F880F962F981B892F90E0B9015D
:100380000E9474028091400118164CF488E291E0BA
:100390000E943E048091400181508093400189E297
:1003A00090E0FC01808188232CF080ED97E00E9492
:1003B0009F008CCF89E290E0FC018081882F90E043
:1003C00080749927892B29F484EC99E00E949F007E
:1003D0007DCF89E290E0FC018081882F90E08072DF
:1003E0009927892B09F072CF88EB9BE00E949F0030
:1003F0006DCF1F920F920FB60F9211248F93CF9350
:10040000DF93CDB7DEB7809140018F5F80934001CD
:100410000000DF91CF918F910F900FBE0F901F9032
:1004200018951F920F920FB60F9211248F939F93DE
:10043000EF93FF93CF93DF93CDB7DEB784E890E0DF
:10044000FC01118210820000DF91CF91FF91EF91AA
:100450009F918F910F900FBE0F901F9018951F9234
:100460000F920FB60F9211248F939F93EF93FF93E8
:10047000CF93DF93CDB7DEB782EB90E0FC01108223
:10048000809105018F5F809305010000DF91CF917E
:10049000FF91EF919F918F910F900FBE0F901F9042
:1004A0001895CF93DF93CDB7DEB70000DF91CF91E2
:1004B0000895CF93DF93CDB7DEB70000DF91CF91E2
:1004C0000895CF93DF9300D0CDB7DEB789836A83D9
:1004D00099818A81981714F4898101C08A810F90CB
:1004E0000F90DF91CF910895CF93DF9300D000D08C
:1004F00000D0CDB7DEB78C836D834E838C8189832A
:100500008D818A838E818B838981805D80931301A5
:100510008A81805D809314018B81805D80931501B9
:1005200040E160E086E091E00E94DA030000269658
:100530000FB6F894DEBF0FBECDBFDF91CF91089507
:10054000CF93DF93CDB7DEB70000DF91CF91089551
:10055000CF93DF93CDB7DEB70000DF91CF91089541
:10056000CF93DF93CDB7DEB70000DF91CF91089531
:10057000CF93DF93CDB7DEB72B970FB6F894DEBFDE
:100580000FBECDBF9F838E830E9449038D83198246
:100590001A821B821C828D81843128F419821A826E
:1005A0001B821C8238C08D81823348F48DEC9CEC18
:1005B000ACE4BEE389839A83AB83BC832CC08D817A
:1005C000883748F48DEC9CECACECBEE389839A83CD
:1005D000AB83BC8320C08D818A3A48F48AE999E9CB
:1005E000A9E1BFE389839A83AB83BC8314C08D8167
:1005F0008C3D48F48DEC9CECACE4BFE389839A839A
:10060000AB83BC8308C086E696E6A6E6BFE3898393
:100610009A83AB83BC8329813A814B815C8160E002
:1006200070E080E89FE30E947206688779878A8776
:100630009B8788859985AA85BB852E813F81F90195
:1006400080839183A283B38300002B960FB6F89426
:10065000DEBF0FBECDBFDF91CF910895CF93DF9363
:10066000CDB7DEB787E290E0FC01208187E290E021
:100670002E7FFC0120838CE790E020E6FC012083A4
:100680008AE790E027E8FC01208381E0DF91CF91A9
:100690000895CF93DF93CDB7DEB78AE790E0FC01F2
:1006A00020818AE790E02064FC01208300008AE733
:1006B00090E0FC018081882F90E080749927892B3D
:1006C000B1F789E790E0FC018081DF91CF91089537
:1006D000CF93DF93CDB7DEB728970FB6F894DEBF80
:1006E0000FBECDBF83E589830E94530587E20E9438
:1006F000390680E00E94F30580E30E94F30580E361
:100700000E94F30580E30E94F30580E30E94F30555
:1007100080E20E94F30560E08CE00E94BA0560E090
:1007200081E00E94BA050E946A050E94530587E293
:100730000E94390668E080E80E94BA0589830E9419
:100740006A0587E391E09B838A8387E28C8388E054
:100750008D8389E08E838A819B8198878F834C81EA
:100760005D816E817F8188850E947705898389817B
:1007700028960FB6F894DEBF0FBECDBFDF91CF91A4
:100780000895CF93DF9300D0CDB7DEB78A830E9460
:10079000530587E20E9439068A81806868E00E94DA
:1007A000BA0589830E946A0589810F900F90DF91B5
:1007B000CF910895CF93DF93CDB7DEB72A970FB6C9
:1007C000F894DEBF0FBECDBF98878F8369874A87B5
:1007D00083E5898389850E94C103898387E28A83AF
:1007E00089E08C838A858B838F8198859E838D8316
:1007F0004A815B816C817D818E810E94770589832E
:1008000089812A960FB6F894DEBF0FBECDBFDF9167
:10081000CF910895CF93DF93CDB7DEB760E48AE040
:100820000E94D30460E081E00E94D30460E780E08E
:100830000E94D30460E08DE00E94D30460E78CE066
:100840000E94D30460E085E00E94D30460E784E066
:100850000E94D30460E089E00E94D30460E788E04E
:100860000E94D30460E087E00E94D30460E786E042
:100870000E94D3040000DF91CF910895CF93DF93BE
:1008800000D00F92CDB7DEB79B838A83198260E0D8
:1008900082E10E94FF0489838981882354F08A8140
:1008A0009B81FC018281282F21608A819B81FC0130
:1008B00022838981082E000C990B88709927892B37
:1008C00051F48A819B81FC018281282F22608A81D8
:1008D0009B81FC01228360E083E10E94FF04898305
:1008E0008981882354F08A819B81FC018281282F91
:1008F00024608A819B81FC0122838981082E000C5F
:10090000990B88709927892B51F48A819B81FC016E
:100910008281282F28608A819B81FC01228300002C
:100920000F900F900F90DF91CF910895CF93DF93A9
:10093000CDB7DEB784E290E02FE2FC01208385E2B0
:1009400090E0FC01208185E290E02560FC0120839D
:100950008CE490E0FC0120818CE490E02065FC01B7
:1009600020838DE490E0FC0110820000DF91CF91A4
:100970000895CF93DF930F92CDB7DEB789838EE4CE
:1009800090E02981FC01208300008DE490E0FC01CF
:1009900080818823D4F78EE490E0FC0180810F9061
:1009A000DF91CF910895CF93DF9300D00F92CDB711
:1009B000DEB78A836B83198285E290E0FC01208197
:1009C00085E290E02B7FFC01208380E40E94B90443
:1009D0008A810E94B9048B810E94B904898385E2CF
:1009E00090E0FC01208185E290E02460FC012083FE
:1009F00089810F900F900F90DF91CF910895CF9341
:100A0000DF9300D00F92CDB7DEB78A836B83198254
:100A100085E290E0FC01208185E290E02B7FFC01E3
:100A2000208381E40E94B9048A810E94B9048B81E9
:100A30000E94B904898385E290E0FC01208185E26F
:100A400090E02460FC01208389810F900F900F902B
:100A5000DF91CF910895CF93DF93CDB7DEB787E2D3
:100A600090E0FC01208187E290E02F7CFC01208354
:100A700088E290E0FC01208188E290E02063FC01A4
:100A800020838AEB90E0FC01108288EB90E021EC5F
:100A9000FC0120838CEB90E024E0FC01208381E0CA
:100AA000DF91CF910895CF93DF93CDB7DEB78CEB75
:100AB00090E024EAFC0120830E94620689EB90E02A
:100AC000FC018081803111F086E401C083E5DF9173
:100AD000CF910895CF93DF93CDB7DEB78CEB90E045
:100AE00024E9FC0120830000DF91CF910895CF938A
:100AF000DF9300D000D000D00F92CDB7DEB74B838C
:100B00005C836D837E838F8383E589830E94530595
:100B100089838981833531F48B810E9439068983E9
:100B20001A8215C00E946A0589811BC04D812E81E1
:100B30003F818A81882F90E0820F931FFC01808182
:100B4000642F0E94BA0589838A818F5F8A838C8192
:100B50009A81981718F483E58983E8CF0E946A0583
:100B6000898127960FB6F894DEBF0FBECDBFDF9107
:100B7000CF910895CF93DF9300D000D00F92CDB7DF
:100B8000DEB78C836D8383E589838C81982F907F7A
:100B90008D81892B8A838C81882F90E08295929514
:100BA000907F9827807F9827982F8D81892B8B8322
:100BB0008A810E94F30589838981833511F08981B7
:100BC0000AC08B810E94F30589838981833511F0E6
:100BD000898101C089810F900F900F900F900F9025
:100BE000DF91CF910895CF93DF9300D0CDB7DEB7DB
:100BF0008A838A8189838BEB90E029812460FC01C0
:100C000020838CEB90E024E8FC0120830E946206A4
:100C100089EB90E0FC018081882F90E0887F992704
:100C2000889729F089EB90E0FC0180811DC08BEB57
:100C300090E029812B7FFC0120838CEB90E024E85D
:100C4000FC0120830E94620689EB90E0FC01808118
:100C5000882F90E0887F9927889729F089EB90E08A
:100C6000FC01808101C083E50F900F90DF91CF914F
:100C70000895CF93DF930F92CDB7DEB789830E949B
:100C800062068BEB90E02981220FFC0120838CEB24
:100C900090E024E8FC0120830E94620689EB90E04A
:100CA000FC018081882F90E0887F9927489729F060
:100CB00089EB90E0FC01808101C083E50F90DF911A
:100CC000CF910895CF93DF93CDB7DEB700008CEBC3
:100CD00090E0FC0180818823D4F700000000DF91C0
:100CE000CF9108955058BB27AA270E948A060C94DA
:100CF000F6060E94E80638F00E94EF0620F039F46C
:100D00009F3F19F426F40C94E5060EF4E095E7FBFA
:100D10000C94DF06E92F0E94070758F3BA17620701
:100D200073078407950720F079F4A6F50C9429073A
:100D30000EF4E0950B2EBA2FA02D0B01B9019001F6
:100D40000C01CA01A0011124FF27591B99F0593F3A
:100D500050F4503E68F11A16F040A22F232F342F82
:100D60004427585FF3CF469537952795A795F040D0
:100D70005395C9F77EF41F16BA0B620B730B840BE5
:100D8000BAF09150A1F0FF0FBB1F661F771F881F9D
:100D9000C2F70EC0BA0F621F731F841F48F48795F5
:100DA00077956795B795F7959E3F08F0B0CF9395E7
:100DB000880F08F09927EE0F97958795089597F972
:100DC0009F6780E870E060E008959FEF80EC0895F1
:100DD00000240A941616170618060906089500241A
:100DE0000A9412161306140605060895092E039494
:100DF000000C11F4882352F0BB0F40F4BF2B11F408
:100E000060FF04C06F5F7F4F8F4F9F4F089557FD66
:100E10009058440F551F59F05F3F71F04795880F68
:100E200097FB991F61F09F3F79F0879508951216FF
:100E300013061406551FF2CF4695F1DF08C01616AB
:100E400017061806991FF1CF86957105610508945C
:100E50000895E894BB2766277727CB0197F9089573
:040E6000F894FFCF34
:100E6400CDCCCC3DFF01202020202020202020209C
:100E7400202020202020002020202020202020208E
:100E8400202020202020200007000048454C4C4F03
:100E940020574F524C44004C434420494E4954007F
:00000001FF
